:1000000000000120897C02083531020839310208DC
:100010003D3102084131020845310208000000006C
:100020000000000000000000000000004D31020848
:10003000493102080000000051310208DD32020897
:1000400055310208593102085D3102086131020858
:1000500065310208693102086D3102087131020808
:1000600075310208793102087D3102080000000074
:100070000000000000000000000000000000000080
:100080000000000000000000553202089D31020807
:10009000A1310208A5310208A9310208AD310208D8
:1000A000B1310208B5310208B9310208BD31020888
:1000B00061320208C1310208C5310208C9310208A3
:1000C000CD310208D1310208D5310208D9310208F8
:1000D000DD31020849320208E13102083D320208EE
:1000E000E5310208E9310208ED310208F131020878
:1000F000F5310208F9310208FD3102080132020827
:1001000005320208093202080D32020811320208D3
:100110001532020831320208193202081D32020873
:100120002132020825320208293202082D32020843
:100130005FF800007047C046FEE7C046FEE7C046D5
:10014000FEE7C046FEE7C0467047C0467047C0465F
:100150007047C0467047C0467047C0467047C046AB
:100160007047C0467047C0467047C0467047C0469B
:100170007047C0467047C0467047C0467047C0468B
:100180007047C0467047C0467047C0467047C0467B
:100190007047C0467047C0467047C0467047C0466B
:1001A0007047C0467047C0467047C0467047C0465B
:1001B0007047C0467047C0467047C0467047C0464B
:1001C0007047C0467047C0467047C0467047C0463B
:1001D0007047C0467047C0467047C0467047C0462B
:1001E0007047C0467047C0467047C0467047C0461B
:1001F0007047C0467047C0467047C0467047C0460B
:100200007047C0467047C0467047C0467047C046FA
:100210007047C0467047C0467047C0467047C046EA
:100220007047C0467047C0467047C0467047C046DA
:1002300000B581B001F032F801B000BD00B581B069
:1002400001F026F801B000BD00B581B001F02CF836
:1002500001B000BD00B581B001F00EF801B000BDE5
:1002600000B54FF0804081B0102104F07FFA58B300
:1002700010214FF0804004F085FA00F0FDFF4FF0B0
:10028000804004F05BFA114B18601968104B4FF076
:1002900080401B88C91889B204F004FA0D4B1B88F2
:1002A00013F01F0F01D101F005F80A4B1B8813F062
:1002B000070F04D1084A13680BB1013B1360054ACC
:1002C000138801339BB2138001B000BD640100208C
:1002D0000A0000206A0100206805002000B581B0F6
:1002E00001F038FB01B000BD054900230022CA54CB
:1002F0000133FF2BFBD1034A002313707047C04624
:10030000680400206C010020F0B50646002400E0DF
:100310000134335D002BFBD14FF0000CC4F1FF071B
:100320000BE0735C15F8012B01319A4218BF0120D4
:10033000A142F6DB58B10CF1010CBC4505DA054BC6
:10034000002103EB0C050020F2E74FF0FF3C604674
:10035000F0BDC04668040020F0B585B001F0A2FAF7
:10036000012001F00FFB2221002000F0A5FDDFF8A5
:100370006815022000F072FF4FF4FA7001F01CFBC8
:10038000002001F0A1FB022001F09EFBFF210020D4
:1003900001F05AFC642001F00FFB0027002001F05F
:1003A00093FB0026019716B90020222101E00020CE
:1003B000012100F081FD642001F0FEFA0125E9B27F
:1003C0002846009100F05EFD00F04AFB012806D0AF
:1003D000284600F057FD00F043FB01287CD10021A6
:1003E000284600F0FDFC84B200F03AFB01281AD048
:1003F0000021284600F0F4FC84B200F031FB012813
:1004000011D00021284600F0EBFC84B200F028FB5C
:10041000012808D00220DFF8C41400F01FFF009864
:1004200000F0BAFEFEE77B1C0220DFF8B414DFB256
:1004300000F014FF009800F0AFFE0220DFF8A414D3
:1004400000F00CFF0321204600F050FD0220DFF8F1
:10045000981400F003FFDFF89414A7FB01239B0816
:1004600003EB8303C3EB070313F0FF0F04D1022058
:10047000DFF87C1400F0F2FEDFF8783401225A55E0
:10048000DFF8743423F81540B4F5AA7F14BF0023B5
:1004900001231D2C08BF43F001031BB1019A531C1B
:1004A000DBB20193002404212222284600F0B6FC8E
:1004B000642001F081FA00F0D3FA01280CD0631C0B
:1004C0009CB2032CEFD10220DFF8301400F0C6FEFE
:1004D000009800F061FEFEE70135FE2D7FF46FAF5E
:1004E000731CDEB2022E7FF45EAF019B33B9022093
:1004F000DFF80C1400F0B2FE02F0E4FD222100202F
:1005000000F0DAFC642001F057FAFB490127029160
:100510000397F84C039AA35C002B00F09E81029B8A
:100520005A88B2F5AA7318BF01231D2A0CBF0023F5
:1005300003F00103002B40F09081F249022000F00B
:100540008DFE384600F028FE0220E64900F086FEC7
:10055000029900254888032100F0C8FC0220EA49DE
:1005600000F07CFE26461CE0335D43B1204600F0DF
:1005700089FC00F075FA012801D0002403E0013461
:10058000FE2CF1D10124642001F016FA6B1C9DB2FF
:10059000B5F5167F04D10220DC4900F05FFEFEE7CE
:1005A0000CB90124E0E70A2001F006FAD14D01243C
:1005B0002B5DD3B1039A944217D019210022204613
:1005C00000F02CFC642001F0F7F9102102222046F3
:1005D00000F024FC642001F0EFF920462D21642274
:1005E00000F0BEFB642001F0E7F90134FE2CDFD1FE
:1005F0004FF47A7001F0E0F90220C54900F02EFEB8
:10060000039800F099FB00F02BFA012807D0022094
:10061000C04900F023FE384600F0BEFDFEE7012091
:1006200001F0CAF9BC4900230022CA540133FF2B50
:10063000FBD1BA4A0023137000240020232101F0CB
:1006400003FB052001F0B8F9002001F061FA38B190
:10065000002001F081FA23280FD0052001F0ACF929
:10066000631C9CB2B4F57A7FE7D10220AC4900F05C
:10067000F5FD384600F090FDFEE7AA49022000F0A3
:10068000EDFD0A2001F098F9A749002000F0E6FDF1
:100690000A2001F091F9A449002000F0DFFD0A20B2
:1006A00001F08AF9A049002000F0D8FD0A2001F0ED
:1006B00083F99E49002000F0D1FD0A2001F07CF969
:1006C0009949002000F0CAFD0A2001F075F992490D
:1006D00000230022CA540133FF2BFBD18F4C00238F
:1006E000237040F6B83001F067F900252646002057
:1006F00001F00EFA40B90CE00020347801F02CFA39
:10070000854B185501343470002001F001FA00289F
:10071000F2D18748FFF7F8FDB0F1FF3F0ED164201A
:1007200001F04AF96B1C9DB20A2DE0D102208149EB
:1007300000F094FD384600F02FFDFEE77E490220D0
:1007400000F08CFD642001F037F97349002300228A
:10075000CA540133FF2BFBD1704A02990023137056
:100760004B881D2B0ED1754C754E002514F8011CBD
:10077000002005EB01030134DDB201F065FAB4425B
:10078000F4D110E0B3F5AA7F11D16E4C6E4E002566
:1007900014F8011C002005EB01030134DDB201F067
:1007A00053FAB442F4D10020294601F04DFA5B4ED1
:1007B0000025002001F0ACF940B90CE000203478AD
:1007C00001F0CAF9544A105501343470002001F088
:1007D0009FF90028F2D15D48FFF796FDB0F1FF3F89
:1007E0001AD002205A4900F039FD5A49022000F07F
:1007F00035FD002001F0C6F84FF4FA7001F0DCF886
:100800000220554900F02AFD012001F0BBF84FF409
:10081000FA7001F0D1F820E05048FFF775FDB0F113
:10082000FF3F0BD002204E4900F018FD02204D4939
:1008300000F014FD384600F0AFFCFEE7642001F044
:10084000BBF86B1C9DB20A2DB3D10220464900F0C3
:1008500005FD384600F0A0FCFEE77B1CDFB20399E3
:10086000029B01310233FE2F029303917FF451AEBC
:1008700028E0735D13B3284600F004FB00F0F0F8A5
:10088000012820D1002404210122284600F0C6FAC4
:10089000642001F091F800F0E3F8012802D101F0A2
:1008A0008BF80BE0631C9CB20A2CECD102202F4980
:1008B00000F0D4FCFE2000F06FFCFEE70135FE2DB9
:1008C000D7D102E00B4E0125D3E70220284900F0E2
:1008D000C5FC02F0F7FBFEE7F07C02082A7D020867
:1008E0009B7D0208577D0208597D0208CDCCCCCCF7
:1008F000277D02086D0100206C0200205B7D02084C
:10090000887D0208997D02089D7D0208AA7D020863
:10091000D57D0208E07D0208680400206C010020FB
:100920000D7E02083A7E0208287D02084F7E0208EA
:10093000517E0208597E0208867E02080190020854
:10094000FD1F03080120030801B00308937E02087D
:100950009B7E0208A77E0208BA7E0208C17E0208BA
:10096000C77E0208D17E0208FE7E02082B7F0208A5
:10097000587F02080530024B400018607047C0469F
:1009800068050020034B1868D0F1010038BF002033
:100990007047C0466805002070B506460D460B48F6
:1009A000102102F0E7F90948202102F0E1F90024C2
:1009B000002001F0ADF830B1002001F0CDF8305545
:1009C0000134AC42F4D1204670BDC046000C014059
:1009D00070B506460D461048202102F0CBF90E48AE
:1009E000102102F0C5F900240AE0315D0B4803F044
:1009F000DBFF0A48402104F03DF80028F9D001341B
:100A0000AC42F2DB1021044802F0B4F90248202184
:100A100002F0AEF9204670BD000C014000380140E4
:100A200000B5002081B001F04FF801B000BDC04614
:100A300000B5002081B001F047F801B000BDC0460C
:100A400010B50C4610B14FF0FF3007E0002001F068
:100A50003BF80020214600F0EFFD002010BDC0460D
:100A6000014B18687047C04600000020014B987089
:100A70007047C0466C050020014B18717047C04696
:100A80006C050020014B1B18597170476C05002044
:100A9000014BD8707047C0466C050020034B1B7992
:100AA00018420CBF002001207047C0460C060020F1
:100AB000014BD8787047C0460C060020014B1B182C
:100AC000587970470C06002000EB012080B2704777
:100AD000C0B2704700F47F40000A704730B55349F8
:100AE00081B00B68002B00F09F80514B514A9B78DE
:100AF000FE2B00F09580126822B94F4B1A704F4BB5
:100B000006221A704C4D4D4C2B7821784C48C91A4E
:100B1000C018FFF741FF2B78C0182378C0B283427A
:100B2000287003D9FFF72EFF012808D0424B002080
:100B30001A78434902F1FF3CA2F1020E19E02B782A
:100B40003C4A0BB9062300E0072313600022374B11
:100B50004FE00B5CFF2B04D101EB00035B78FF2B14
:100B600009D0704503D111F80C30FF2B03D0431C82
:100B7000D8B26045EDDB88B10021C0EB020CDFF894
:100B8000C0E006E00EEB01031B5C0EF801304B1CCD
:100B9000D9B26145F6DB284B121A1A70264D274C44
:100BA00095F800C02378634521D8214B24489A78D2
:100BB00083789A4203D01F4B07221A60C6E7C37896
:100BC0000433D9B28C4521700BD26044CCEB0101C7
:100BD000FFF7E2FE2B78C0182378C0B2834228705A
:100BE00005D8174B0021D87800229C460AE0114B0B
:100BF00005221A6018E00CEB01039B781344DAB26B
:100C00004B1CD9B28842F6DA0D4B6FEA02021B1870
:100C1000DB78D2B293420549064A01D0072300E0AF
:100C20000123136000230B6001B030BD5406002087
:100C30006C05002000000020530600205206002012
:100C40000C06002030B5314881B00368012B5AD022
:100C50002F4A01230360D378982B12D811794A1EAA
:100C6000D2B2B1F10C0318BF0123062A94BF0023AE
:100C700003F001035BB10D2909D0832907D0842932
:100C800005D0244A04231360002303603BE0204A7C
:100C90004FF0FF331370537092F803C0002100200F
:100CA00006E002EB01039B780344D8B24B1CD9B297
:100CB0008C45F6DA164B6FEA00026344DA70154B86
:100CC0001B68063B012B01D8FFF7AAFE104DEC78FC
:100CD00028460434E4B22146FFF77AFEC0B28442CB
:100CE00005D00C4B02221A600022084B0AE02B7937
:100CF000022B02D1A879063000E00620FFF73AFE69
:100D0000044B00221A6001B030BDC04654060020DA
:100D10006C0500200000002010B5FFF793FF054A86
:100D200013682BB91446FFF7D9FE2368052BFAD0B8
:100D300010BDC0460000002000B5074B81B01B6805
:100D40004BB9064B07221A7102229870DA70FFF72E
:100D5000E3FF01B000BDFEE7540600206C05002053
:100D600000B50F4B81B01B689446BBB90D4B0D22EB
:100D70001A711D3ADA7155221A720F225A72653AA7
:100D80009A7208229870597183F806C0DA70FFF7DA
:100D9000C3FF642000F010FE01B000BDFEE7C046B6
:100DA000540600206C05002000B50B4B81B01B6879
:100DB00094467BB9094A032313711FFA8CF393718C
:100DC0001B0AD371052390705171D370FFF7A4FFF4
:100DD00001B000BDFEE7C046540600206C050020AF
:100DE00000B50B4B81B01B688BB90A4A0223137103
:100DF0009371042390705171D370FFF78DFF064BF0
:100E00009A79587900EB022080B201B000BDFEE76C
:100E1000540600206C0500200C06002000B5094B8C
:100E200081B01B68944663B9074B03221A710422F0
:100E30009870597183F806C0DA70FFF76DFF01B042
:100E400000BDFEE7540600206C05002000B50A4BEB
:100E500081B01B6873B9094A02231371012393718E
:100E600004239070D3705171FFF756FF044B5879EB
:100E700001B000BDFEE7C046540600206C0500200E
:100E80000C06002000B5074B81B01B684BB9064B20
:100E900001221A7102229870DA70FFF73DFF01B04B
:100EA00000BDFEE7540600206C05002000B581B0AF
:100EB000FFF7BEFD01B000BD00B5094B013193FB4A
:100EC000F1F381B01946FFF7BBFD30B1054B0122AC
:100ED0001A60054B00221A60012001B000BDC04617
:100EE00080841E000000002054060020F0B583B06E
:100EF000009100210746019142F210750426009BE3
:100F0000B7FBF5F4B3420DDD44B104F13001C9B2D1
:100F1000022000F099FE0121019103E0022030211E
:100F200000F092FE013E08D305FB147304499FB202
:100F3000A5FB0123DB089DB2E1E703B0F0BDC0468D
:100F4000CDCCCCCCF0B5002883B0044605DAC0F196
:100F500000042D21022000F077FE0027144E019797
:100F600094FBF6F3DDB245B105F13001C9B20220C0
:100F700000F06AFE0121019105E0019B1BB10220F6
:100F8000302100F061FE0B4906FB154486FB01236E
:100F9000F117C1EBA3067B1CDFB2092FE0D194FB54
:100FA000F6F13031C9B2022000F04EFE03B0F0BDC0
:100FB00000CA9A3B67666666F0B5002883B00546AE
:100FC00002DB0021019104E0C0F1000301221DB207
:100FD000019200230093002742F2107695FBF6F36E
:100FE0009CB287F00103002C0CBF002303F0010327
:100FF0006BB1019919B102202D2100F025FE04F1F9
:101000003001C9B2022000F01FFE01270FE027B116
:1010100004F13001C9B2022007E0009A042A02D08C
:101020000220202101E00220302100F00DFE009975
:101030004B1CDBB2052B009308D006FB145304496C
:101040001DB2A6FB0123DB089EB2C7E703B0F0BDCB
:10105000CDCCCCCCF0B5002883B0054602DB002116
:10106000019104E0C0F1000301225DB2019200236E
:1010700000930027642695FBF6F39CB287F00103EA
:10108000002C0CBF002303F001036BB1019919B1CF
:1010900002202D2100F0D8FD04F13001C9B2022058
:1010A00000F0D2FD012709E027B104F13001C9B2F7
:1010B000022001E00220202100F0C6FD009A531C0E
:1010C000DBB2032B009308D006FB145304495DB236
:1010D000A6FB0123DB089EB2CDE703B0F0BDC046FE
:1010E000CDCCCCCCF0B5002683B0134C074601968E
:1010F000B7FBF4F545B105F13001C9B2022000F0AB
:10110000A3FD012101910AE0019B23B9032E02D81E
:101110000220202101E00220302100F095FD731C07
:10112000DEB20A2E06D0054904FB1577A4FB012385
:10113000DC08DDE703B0F0BD00CA9A3BCDCCCCCCD7
:10114000F0B5002683B00746019642F21075B7FB52
:10115000F5F444B104F13001C9B2022000F074FD8D
:101160000121019106E0019B03B91EB90220302143
:1011700000F06AFD731CDEB2052E08D005FB147367
:1011800004499FB2A5FB0123DB089DB2DFE703B052
:10119000F0BDC046CDCCCCCC174A30B5A0FB022365
:1011A0005C09E4B204F1300181B00546C9B2022005
:1011B00000F04AFDC4EB446304EB8303C4EBC304B7
:1011C00005EB84050D4AEDB2A5FB0223DC08E4B271
:1011D00004F130010220C9B200F036FDC4EB4473C3
:1011E0003035C4EB830405EB4405EDB202202946FB
:1011F00000F02AFD01B030BD1F85EB51CDCCCCCC29
:10120000030903F00F0303F13001392988BF0731C7
:1012100010B5C9B20446022000F016FD04F00F0319
:1012200003F13000392888BF0730C1B2022000F036
:101230000BFD10BD10B50446E4B2000AFFF7E0FF55
:101240002046FFF7DDFF10BD10B50446A4B2000C28
:10125000FFF7F0FF2046FFF7EDFF10BD70B5064623
:101260000D46002402E0304600F0EEFC295D01341A
:101270000029F8D170BDC04600B581B000F0EAFB8E
:1012800001B000BD00B581B000F064FB01B000BD4D
:1012900000B581B000F084FC01B000BD00B581B0A4
:1012A00000F09AFC01B000BD00B581B000F0B0FCC8
:1012B00001B000BD00B581B000F04EFE01B000BD30
:1012C00008B9064B08E0012808BF054B04D00228E6
:1012D00001D0002001E0034B186870470C0000208B
:1012E000100000201400002070B54FF40C3182B0C3
:1012F0004FF0006001F0E0FE01AD4FF4C06001F07E
:101300003DFE01242523002628468DF804308DF863
:1013100005608DF806408DF8074001F039FE27235F
:101320008DF80430284603238DF806308DF80560CB
:101330008DF8074001F02CFE1C2328468DF8043060
:101340008DF805408DF806608DF8074001F020FE0D
:1013500002B070BDF0B583B001AD594C284601F024
:10136000EBFC4FF464530326ADF8043020464FF0F5
:10137000100329468DF807308DF8066001F088FCCF
:101380004FF48063ADF8043020464FF00403294643
:101390008DF8073001F07CFC4FF0FF03ADF804300E
:1013A00020464FF00003294618278DF8073001F03A
:1013B0006FFC4FF4007320462946ADF804308DF8D9
:1013C00006608DF8077001F063FC4CF20003ADF885
:1013D000043020464823294604F580648DF8073000
:1013E00001F056FC41F23C33ADF8043020464FF09A
:1013F000100329468DF807308DF8066001F048FC8F
:101400004FF40863ADF8043020464FF0040329463A
:101410008DF8073001F03CFC4EF24043204629464F
:10142000ADF804308DF806608DF8077001F030FCDF
:101430004FF00303ADF8043020464FF00003294677
:1014400004F580648DF8073001F022FC4EF6C0737D
:10145000ADF8043020464FF0100329468DF80730D0
:101460008DF8066001F014FC4FF4805320462946A5
:10147000ADF804308DF806608DF8077001F008FCB7
:101480004FF03F03ADF8043020464FF000032946EB
:101490008DF8073001F0FCFB4FF0040329460948A2
:1014A000ADF804308DF8073001F0F2FB0420012183
:1014B00001F088FC0448012101F084FC03B0F0BD78
:1014C00000080140001401400004300030B51E4CFB
:1014D0004FF4006587B02046294601F049FC2046BC
:1014E0004FF4806101F044FC4FF00003ADF806308A
:1014F0004FF48273ADF808304FF00203ADF80C30B2
:101500004FF00103ADF80E304FF40073ADF810301A
:101510004FF00803ADF81230A4F558444FF0000323
:10152000ADF8143020464FF007030DF10601ADF879
:101530000A50ADF8163002F0EFF82046012102F013
:1015400029F907B030BDC0460010014010B586B083
:1015500001AC204600F0DAFE012100224FF46023A6
:101560008DF809108DF814103148214601928DF83C
:1015700008200393049200F0A5FE2E48214600F0B7
:10158000A1FE07232A480A21012200F023FF284850
:101590004FF40871002200F0D7FE072325480421EC
:1015A000012200F017FF002222484FF4087100F0DA
:1015B000CBFE1F48012100F0B3FE1E48012100F0C0
:1015C000AFFE1B4800F0CCFE194800F0CFFE00280B
:1015D000FAD100F1804000F5943000F0C1FE1548CA
:1015E00000F0C4FE0028FAD100F1804000F59230EE
:1015F00000F0C2FE0E4800F0C5FE0028FAD100F14E
:10160000804000F5943000F0B7FE0A4800F0BAFEC2
:101610000028FAD100F18040012100F5923000F05D
:10162000B7FE0448012100F0B3FE06B010BDC0466D
:10163000002401400028014030B50D4685B000BBB4
:10164000354B6846196003F009F94FF00003ADF817
:101650000430ADF80630ADF80830ADF80C302F4846
:101660004FF00C036946ADF80A30009503F03CFAE0
:101670002A4840F22551012203F02AF96C462748F6
:1016800044E0012820D1264B6846196003F0E6F8B3
:101690004FF00003ADF80430ADF80630ADF8083077
:1016A000ADF80C301F484FF00C036946ADF80A3016
:1016B000009503F019FA1B4840F22551012203F06E
:1016C00007F96C46174821E0022822D1164B6846DC
:1016D000196003F0C3F84FF00003ADF80430ADF823
:1016E0000630ADF80830ADF80C3010484FF00C0360
:1016F0006946ADF80A30009503F0F6F90B4840F260
:101700002551012203F0E4F808486C46012103F05A
:10171000D1F805B030BDC0460C00002000380140B3
:10172000100000200050004014000020004800403D
:1017300000B581B001F01EFE4FF4803001F03AFE9A
:1017400001F052FE012824D1102001F025F80220DA
:1017500001F00AF8002001F091FE002001F0A2FE45
:101760004FF4806001F094FE4FF480304FF4E011AC
:1017700001F062FE012001F069FE392001F092FFC4
:101780000028FAD0022001F067FE01F06FFE082861
:10179000FBD1012146F63D6001F03AFF04480121EA
:1017A00001F044FF012001F075FD01B000BDC0460D
:1017B0000F40141800B542F2283081B002F046F90B
:1017C000012002F05FF901B000BDC04630B583B022
:1017D000684600F095FF0E21002001F023FB002356
:1017E0008DF804300C234FF480448DF805306846A2
:1017F00001238DF80630009400F03EFF204600F0F3
:1018000087FF204600F096FF20466D4600F0A6FFB9
:1018100003B030BD70B588B00DF1160528460DF146
:1018200006064FF0804402F04DFC304602F056FCB4
:10183000204602F0ADFF4FF0FF33ADF81A302046DE
:101840004FF000032946ADF81630ADF81C30ADF866
:10185000183002F03FF90122204640F2D22102F076
:101860002BFD4FF00003ADF80630ADF80830ADF8B1
:101870000E300B4B20461B883146ADF80C3002F081
:1018800061FA2046002102F0C5FD20461021012208
:1018900002F062FC2046012102F042FC08B070BD5B
:1018A0000A00002010B503F0DCF9FFF741FFFFF755
:1018B0001BFDFFF74FFD00F07BFF174B0120196860
:1018C000FFF7BAFE154B164C19680220FFF7B4FE5D
:1018D000FFF73CFEFFF76EFFFFF79CFFFFF7F6FDFB
:1018E0002046102101F046FA2046202104F58064AC
:1018F00001F03EFA20464FF4806101F039FA2046AB
:101900004FF4006101F034FA03F0ADF900F042FC4D
:1019100000F0A8FB10BDC0461000002014000020FD
:10192000000C01407047C046084B0022196805E0D2
:101930000023C91801330A2BFBD101328242F7D3AD
:10194000024B1960024B19607047C04658060020D0
:101950005C060020034A136813B11368013B13604F
:101960007047C0466006002000B5002081B000F03E
:1019700069F8034B000980B2185C01B000BDC04695
:101980001800002000B5012881B00BD100F1804083
:1019900000F5843000F57F7003304FF4807101F062
:1019A000E7F904E003484FF4807101F0E3F901B076
:1019B00000BDC046000C014010B50446012002F0F5
:1019C0004BF8074B1C601A461368002BFCD16FF0D4
:1019D000010002F041F8002002F03EF810BDC046C0
:1019E000600600207B2010B501F05CFE012801D1CB
:1019F000022422E07A2001F055FE012801D10124C1
:101A00001BE07C2001F04EFE012801D1032414E0EC
:101A10007D2001F047FE012801D104240DE07E2045
:101A200001F040FE012801D1052406E07F2001F0ED
:101A300039FE01280CBF0624002401F055FE204683
:101A400010BDC046024B33F8100080B27047C0464C
:101A50006606002070B5174E1748347800F010FD68
:101A6000164D25F814001648347800F009FD0834A6
:101A700025F8140033780133DBB233703378082B48
:101A800001D1002333700B4D0E4C2B78012254F8FA
:101A9000231009480723C9B200F09CFC2B780848A2
:101AA000083354F823100122C9B2072300F092FC36
:101AB00070BDC04664060020002401406606002078
:101AC000002801401801002020B90B4B0B4A187068
:101AD0001B780EE0012805D1094A00231370137802
:101AE000084A06E0022805D1074A0023137013783C
:101AF000064A13707047C0468707002086070020FB
:101B000089080020880800208B0900208A0900200D
:101B100018B90B4B1A780B4B0CE0012803D10A4B78
:101B20001A780A4B06E0022801D0FF2006E0084B95
:101B30001A78084B1B78D01A18BF01207047C0468E
:101B400086070020870700208808002089080020D9
:101B50008A0900208B09002018B90B490B4A0B7821
:101B60000CE0012803D10A490A4A0B7806E0022852
:101B700001D0FF2007E00849084A0B78D25C013306
:101B8000DBB210460B7070478607002086060020E7
:101B900088080020880700208A0900208A08002081
:101BA00000B50A4881B040F2255102F06FFF50B1F4
:101BB000064802F0FDFE0649064A0B78C0B2D05432
:101BC0000133DBB20B7001B000BDC04600480040DD
:101BD0008B0900208A08002000B50A4881B040F235
:101BE000255102F053FF50B1064802F0E1FE0649CC
:101BF000064A0B78C0B2D0540133DBB20B7001B08F
:101C000000BDC04600500040890800208807002021
:101C100000B50A4881B040F2255102F037FF50B1BB
:101C2000064802F0C5FE0649064A0B78C0B2D054F9
:101C30000133DBB20B7001B000BDC046003801407B
:101C4000870700208606002010B50C46E8B900F191
:101C5000804000F58630202101F08CF81C481021CE
:101C600001F086F8A1B21B4802F09EFE19484021FF
:101C700002F000FF0028F9D01021154801F07AF891
:101C80001348202101F074F820E001280ED100F162
:101C9000804000F59E4089B2FF3002F085FE0E487C
:101CA000402102F0E7FE0028F9D00FE002280DD114
:101CB00000F1804000F58E4089B2FE3002F074FEE3
:101CC0000648402102F0D6FE0028F9D010BDC046DB
:101CD000000C014000380140005000400048004026
:101CE0000449054A0B78C0B2D0540133DBB20B7003
:101CF0007047C0468C090020A8090020014B002233
:101D00001A7070478C09002070B562498B784A7848
:101D1000487902EB0322604B92B21A800B7912B21F
:101D200003EB00231FFA83FC5C4B087AA3F800C086
:101D3000CB7903EB00239CB2594BC87A1C808B7A79
:101D400003EB00239DB2574B887B1D804B7B03EB3D
:101D500000239EB2544B487C1E800B7C03EB002377
:101D600099B2524B198002F13F0332EA220228BF96
:101D70001A46921102EB8202D31C32EA220228BFD9
:101D80001A46921002F5007240F2FF339A42C8BF21
:101D90001A4602DC002AB8BF0022454B1A800FFA0F
:101DA0008CF303F13F0233EA230328BF13469B1150
:101DB00003EB8303DA1C33EA230328BF13469B108B
:101DC00003F5007240F2FF339A42C8BF1A4602DCA4
:101DD000002AB8BF0022374B1A8023B203F13F021A
:101DE00033EA230328BF13469B1103EB8303DA1C5A
:101DF00033EA230328BF13469B1003F5007240F219
:101E0000FF339A42C8BF1A4602DC002AB8BF00223C
:101E1000294B1A802BB203F13F0233EA230328BF78
:101E200013469B11C3F5007240F2FF339A42C8BFBC
:101E30001A4602DC002AB8BF0022204B1A8033B2B7
:101E400003F13F0233EA230328BF13469B11C3F576
:101E5000007240F2FF339A42C8BF1A4602DC002AE1
:101E6000B8BF0022164B1A800BB203F13F0233EACF
:101E7000230328BF13469B1103F5007240F2FF3382
:101E80009A42C8BF1A4602DC002AB8BF00220D4B96
:101E90001A8070BDA8090020900900209209002036
:101EA0009409002096090020980900209A09002032
:101EB0009C0900209E090020A0090020A209002002
:101EC000A4090020A6090020014B18887047C046CD
:101ED0009C090020014B18887047C0469E090020CD
:101EE000014B18887047C046A0090020014B188894
:101EF0007047C046A2090020014B18887047C046B1
:101F0000A4090020014B18887047C046A60900208C
:101F1000014BB3F90000704790090020014BB3F961
:101F20000000704792090020014BB3F90000704790
:101F300094090020014BB3F9000070479609002076
:101F4000014BB3F90000704798090020014BB3F929
:101F5000000070479A09002070B53C4E3C4D0024AB
:101F60003C48022101F0AAFC0028F9D03A484FF47D
:101F7000006100F0FFFE315D364801F043FC35485A
:101F8000022101F09BFC0028F9D03248012101F028
:101F900095FC0028F9D02F4801F036FC2B782F4A09
:101FA000C0B2D05401332E4A0134DBB22B7084FB13
:101FB0000223A3EBE47303EB43039C4204D12648C2
:101FC0004FF4006100F0D4FE092CC9D11F4E204D02
:101FD00000242048022101F071FC0028F9D01E489D
:101FE0004FF4806100F0C6FE315D1A4801F00AFC32
:101FF0001848022101F062FC0028F9D0154801219F
:1020000001F05CFC0028F9D0124801F0FDFB2B78B0
:10201000124AC0B2D0540133114A0134DBB22B70E2
:1020200084FB0223A3EBE47303EB43039C4204D140
:1020300009484FF4806100F09BFE092CC9D1FFF7DD
:1020400063FE034B00221A7070BDC0465801002089
:102050008C0900200038004000100140A809002031
:102060005655555510B54748022101F027FC002868
:10207000F9D045484FF4806100F07CFE41482021B2
:1020800001F0C0FB3F48022101F018FC0028F9D004
:102090003C48012101F012FC0028F9D0394801F038
:1020A000B3FB3A493A4A0B78C0B2D0540133DBB2A1
:1020B0000B7034483F2101F0A5FB3248022101F0AA
:1020C000FDFB0028F9D02F48012101F0F7FB002883
:1020D000F9D02C4801F098FB2C492D4A0B78C0B25E
:1020E000D0540133DBB20B7027484FF4806100F00D
:1020F0003FFE2448022101F0E1FB0028F9D02248EC
:102100004FF4806100F036FE1E48232101F07AFB77
:102110001C48022101F0D2FB0028F9D01948012106
:1021200001F0CCFB0028F9D0164801F06DFB1749EF
:10213000174A0B78C0B2D0540133DBB20B70114890
:10214000102101F05FFB0F48022101F0B7FB0028CE
:10215000F9D00C48012101F0B1FB0028F9D0094861
:1021600001F052FB094C0A4A2378C0B2D054013323
:10217000DBB205484FF48061237000F0F9FD0023C5
:10218000237010BD00380040001001408C09002071
:10219000A809002010B54748022101F08FFB002854
:1021A000F9D045484FF4006100F0E4FD414820219A
:1021B00001F028FB3F48022101F080FB0028F9D004
:1021C0003C48012101F07AFB0028F9D0394801F0A0
:1021D0001BFB3A493A4A0B78C0B2D0540133DBB208
:1021E0000B703448FF2101F00DFB3248022101F051
:1021F00065FB0028F9D02F48012101F05FFB002882
:10220000F9D02C4801F000FB2C492D4A0B78C0B2C4
:10221000D0540133DBB20B7027484FF4006100F05B
:10222000A7FD2448022101F049FB0028F9D02248EB
:102230004FF4006100F09EFD1E48232101F0E2FAF8
:102240001C48022101F03AFB0028F9D0194801216D
:1022500001F034FB0028F9D0164801F0D5FA1749EF
:10226000174A0B78C0B2D0540133DBB20B7011485F
:10227000202101F0C7FA0F48022101F01FFB0028BE
:10228000F9D00C48012101F019FB0028F9D00948C8
:1022900001F0BAFA094C0A4A2378C0B2D05401338B
:1022A000DBB205484FF40061237000F061FD0023AC
:1022B000237010BD00380040001001408C09002040
:1022C000A809002043680A6823F4702323F480736C
:1022D00013430A7943EA02234360CB688A68D0F843
:1022E00008C01A43084B0CEA03031A434B7942EA2D
:1022F000430282600B7CC26A013B22F47002DBB2B3
:1023000042EA0352C2627047FDF7F1FF0023036007
:10231000037143718360C360012303747047C04637
:1023200019B1836843F0010302E0836823F00103DD
:102330008360704719B1836843F4807302E0836857
:1023400023F4807383607047C9B21AB1436841EACD
:10235000030302E0436823EA010343607047C04679
:10236000836843F0080383607047C0468068C008F4
:1023700000F001007047C046836843F004038360A7
:102380007047C0468068800800F001007047C04672
:1023900019B1836843F4A00302E0836823F4A00327
:1023A000836070478068800D00F001007047C04670
:1023B0004368013923F4604343EA41334360704783
:1023C00019B1436843F4006302E0436823F40063F7
:1023D00043607047092930B594460C461D464FEAC4
:1023E00041020BD912191E3A0723934015FA02F243
:1023F000C16821EA03011143C16009E012190723F2
:10240000934015FA02F2016921EA030111430161C7
:10241000BCF1060F0CD80CEB8C02053A1F2393403D
:1024200014FA02F2416B21EA0301114341631BE0FC
:10243000BCF10C0F4FEA8C020BD86244233A1F23E5
:10244000934014FA02F2016B21EA03011143016384
:102450000AE06244413A1F23934014FA02F2C16A2F
:1024600021EA03011143C16230BDC04619B183683E
:1024700043F4801302E0836823F480138360704781
:10248000C06C80B27047C046014B18687047C046A8
:102490004C24014019B1436843F4806302E043686F
:1024A00023F480634360704719B1436843F4805359
:1024B00002E0436823F4805343607047836823F449
:1024C000E04319438160704719B1836843F40043C6
:1024D00002E0836823F400438360704719B1836886
:1024E00043F4021302E0836823F40213836070470D
:1024F0008068400D00F001007047C046092930B5E2
:102500008C4615461C464FEA41020BD962441E3ADE
:102510000723934014FA02F2C16821EA0301114330
:10252000C16009E062440723934014FA02F2016992
:1025300021EA030111430161836B1F2103F440125F
:102540006FEA12522A440332D2B202EB8202914065
:102550000CFA02F223EA01031343836330BDC04641
:10256000836B013923F4401343EA015383637047BB
:1025700082B00A5002B0704782B0019028304058B3
:1025800080B202B07047C046436823F4400323F48E
:102590000073194341607047416282627047C046D0
:1025A000436823F01F0319434160704720B1054A77
:1025B000936843F4000303E0024A936823F40003A2
:1025C0009360704700240140036819420CBF00204B
:1025D000012070476FEA010101607047426803689B
:1025E00013EA112301D1002004E0CBB213420CBF47
:1025F000002001207047C0466FEA1121016070473A
:1026000000B5144B83B0984201900FD003F5A0534E
:10261000984213D0A3F5C053984219D14FF40070DB
:10262000012101F011F84FF400700EE04FF48060CA
:10263000012101F009F84FF4806006E04FF40040FA
:10264000012101F001F84FF40040002100F0FCFFEF
:1026500003B000BD00280140064B00221A605A60FA
:102660009A60DA6002F18072A2F57802013A5A614A
:102670007047C04600040140837910B5D0F800C00F
:102680000479002B30D01D496FEA0C020B6802EA76
:1026900003030B604B681A404A6004F1804202F564
:1026A0008232136843EA0C031360D0F800C08B68D1
:1026B0006FEA0C0202EA03038B60CB6840791A4090
:1026C0001028CA6008D18B6843EA0C038B60CB6882
:1026D00043EA0C03CB600FE000F1804202F5823246
:1026E000136843EA0C0306E004F1804202F58232EB
:1026F000136823EA0C03136010BDC04600040140B8
:1027000000220C2302600271437182717047C0463F
:10271000024A1369184310617047C0460004014023
:10272000034B5B6918420CBF002001207047C04674
:1027300000040140014B58617047C046000401404D
:10274000054B1A685B69184201D1002003E0104272
:102750000CBF00200120704700040140014B58616C
:102760007047C04600040140044A136803F0380370
:1027700013601368184310607047C0460020024081
:10278000044A136823F008031360136818431060A9
:102790007047C04600200240044A136823F010032B
:1027A00013601368184310607047C0460020024051
:1027B000034B044A5A6002F188325A607047C0469F
:1027C0000020024023016745024A136943F0800359
:1027D0001361704700200240014BD86980087047A0
:1027E00000200240014B186A7047C046002002409A
:1027F000024BD869400800F00100704700200240F9
:10280000024B1868400900F00100704700200240A8
:1028100021B1054A136940EA030303E0024A136940
:1028200023EA00031361704700200240012804D10D
:10283000054BDB6903F0010005E0034BDB68184240
:102840000CBF00200120704700200240014BD860DF
:102850007047C04600200240094AD36813F0010FB8
:1028600001D001200BE0D36813F0040F01D0022047
:1028700005E0D36813F0100F14BF03200420704745
:102880000020024010B5234A82B0D368014613F0FD
:10289000010F01D001202AE0D36813F0040F01D00A
:1028A000022024E0D36813F0100F14BF032004208B
:1028B0001DE00194CDF804C002E0019B013B0193AF
:1028C000019B002BF9D1D36813F0010F01D0012037
:1028D0000BE0D36813F0040F01D0022005E0D368A9
:1028E00013F0100F14BF03200420013903E0094A3C
:1028F00000244FF0FF0C0B1E18BF0123012814BF4A
:10290000002303F00103002BD3D1002908BF0520C9
:1029100002B010BD00200240F0B5134B134C81B043
:10292000A36003F188330546A3600F200E461746C7
:10293000FFF7A8FF042815D123690D4A43F01003BF
:10294000236145F0F80346EA030347EA0303538093
:102950000F20FFF797FF01281FBF226941F6EF7391
:102960001340236101B0F0BD230167450020024000
:1029700000F8FF1F30B5054681B040F6FF70FFF745
:1029800081FF04283CD11F4C1F4B00F57E60A360E3
:1029900003F18833A36023691B3043F020032361D4
:1029A000236943F040032361FFF76CFF042820D123
:1029B000236941F6DF7203EA02022261236943F0D0
:1029C000100323611DB1114B4FF0000202E00F4BC9
:1029D0004FF0A5021A8040F6FF70FFF753FF012861
:1029E0000ED0084941F6EF730A6902EA03030B614E
:1029F00006E001281FBF226941F6DF7313402361FF
:102A000001B030BD002002402301674500F8FF1FE0
:102A100010B504460F20FFF735FF042850D1294A8E
:102A2000294B6FEA0404936003F1883393601369C0
:102A3000E1B243F01003FF29136104D0234B0F20B0
:102A40001981FFF71FFF04F47F431A0AB2F1FF0355
:102A500018BF0123042814BF002303F0010323B18E
:102A60001A4B0F205A81FFF70DFF04F47F031A0C55
:102A7000B2F1FF0318BF0123042814BF002303F0A1
:102A8000010323B1114B0F209A81FFF7FBFE220EA9
:102A9000B2F1FF0318BF0123042814BF002303F081
:102AA000010323B1094B0F20DA81FFF7EBFE012868
:102AB0001FBF044941F6EF730A69134018BF0B6149
:102AC00010BDC046002002402301674500F8FF1FEB
:102AD00070B506460F200D46FFF7D4FE042814D12A
:102AE0000A4C0B4B0F20A36003F18833A3602369CA
:102AF00043F0100323613580FFF7C4FE01281FBF98
:102B0000226941F6EF731340236170BD002002403B
:102B10002301674570B506460F200D46FFF7B2FE4C
:102B200004280FD1084C0F20236943F001032361CF
:102B30003580FFF7A7FE01281FBF226941F6FE730B
:102B40001340236170BDC0460020024070B50646A8
:102B50000F200D46FFF796FE042817D10C4C0F20CE
:102B6000236943F001032361ABB23380FFF78AFE90
:102B7000042804D12B0C73800F20FFF783FE01285B
:102B80001FBF226941F6FE731340236170BDC0462A
:102B90000020024010B540F6FF70FFF773FE0428D6
:102BA0002CD1174C174B00F57E60A36003F18833DE
:102BB000A36023691B3043F020032361236943F0A2
:102BC00040032361FFF75EFE042810D1226941F61D
:102BD000DF7302EA0303236123694FF0A50243F088
:102BE00010032361084B0F201A80FFF74BFE0128CA
:102BF0001FBF226941F6EF731340236110BDC04629
:102C0000002002402301674500F8FF1F10B540F681
:102C1000FF70FFF737FE042813D10A4C23690343E2
:102C20002361236900F57E6043F0400323611B307C
:102C3000FFF728FE01281FBF226941F6FB731340EE
:102C4000236110BD0020024030B5054681B040F63A
:102C5000FF70FFF717FE042815D10C4C00F57E60BD
:102C600023691B3043F0020323616561236943F04C
:102C700040032361FFF706FE01281FBF226941F6CA
:102C8000FD731340236101B030BDC04600200240F7
:102C9000F0B5CD780E8815F0100F18BF8B7805F0C1
:102CA0000F0718BF1F4316F0FF0F83B01ED0046834
:102CB0000021012212FA01F303EA060C9C4511D10E
:102CC0008A000F23934017FA02F224EA0304144304
:102CD000282D019308BFC0F814C003D0482D08BFA9
:102CE000C0F810C001310829E3D10460FF2E20D9BB
:102CF00044680021012201F1080312FA03F303EAF8
:102D0000060C9C4511D18A000F23934017FA02F25A
:102D100024EA03041443282D019308BFC0F814C00B
:102D200003D0482D08BFC0F810C001310829E1D1F7
:102D3000446003B0F0BDC0464FF0FF330380022370
:102D400083700423C3707047836819420CBF00204E
:102D500001207047806880B27047C046C36819423E
:102D60000CBF002001207047C06880B27047C04689
:102D700001617047416170470AB1016100E0416142
:102D80007047C046C160704741F480338361816100
:102D90008361836983697047DFF818C04FF68073D9
:102DA000DCF8002041EA001102EA03031943CCF8E1
:102DB0000010704700000140014B18607047C0468A
:102DC0001C00204230B500F4401304040D461449A1
:102DD000240CB3F5401FD1F804C006D14B682CF089
:102DE000706223F070634B6010E010F4801F05D018
:102DF00000F47022120C0323934003E0430D1B01E7
:102E000014FA03F32CEA030343F0706225B1430D77
:102E10001B0114FA03F31A43014B5A6030BDC0463C
:102E20000000014010B501F00304A4000F23A340EB
:102E3000A040DFF820C0890802315CF8212022EA96
:102E400003024CF821205CF8213018434CF8210093
:102E500010BDC0460000014000B50120012181B035
:102E600000F0F2FB0120002100F0EEFB01B000BDFC
:102E700000B5274B83B0984201902BD00CD8A3F516
:102E8000006398421AD003F5806398421CD0A3F5E2
:102E9000006398423AD10BE01E4B984226D003F5CE
:102EA0008063984228D0A3F5006398422ED117E0A2
:102EB0000420012100F0C8FB042024E008200121A7
:102EC00000F0C2FB08201EE01020012100F0BCFB36
:102ED000102018E02020012100F0B6FB202012E095
:102EE0004020012100F0B0FB40200CE080200121B7
:102EF00000F0AAFB802006E04FF48070012100F072
:102F0000A3FB4FF48070002100F09EFB03B000BDD6
:102F100000140140001C01400B4B4FF0FF316FF0DB
:102F20007042C3F880101846C3F88420C3F880119B
:102F3000C3F884210021002202F1C00301320F2ACC
:102F400040F82310F8D1704700E100E0094A4FF043
:102F500020630949536000239360D160136153617A
:102F60009361D36113625362013B9362D362136333
:102F70007047C04600ED00E00000FA0540F0BE607A
:102F8000024B40F42020D8607047C04600ED00E0BE
:102F900030B5C37805785BB31A4B4178DA681A4CC0
:102FA0006FEA020202F4E062120AC2F104039940DD
:102FB0000F23D340827805F0030013400B43C00079
:102FC0001B01FF22824083404FEA950C0CF1C00C9C
:102FD00054F82C10134021EA02010B4344F82C3022
:102FE00005F01F0201239340690944F8213008E0ED
:102FF00005F01F02012393406909034A203142F87A
:10300000213030BD00ED00E000E100E0002303705E
:1030100043708370C3707047034B04485B6803EAD6
:103020000000000B7047C04600ED00E000F03F00DC
:1030300000F01F0301229A404009054B403053F82D
:1030400020001040904214BF002001207047C0466D
:1030500000E100E0014B18607047C04600EF00E05F
:103060004109012300F01F008340024A603142F809
:103070002130704700E100E0024B58688005800D68
:103080007047C04600ED00E000F01F0301229A40A7
:103090004009054B803053F820001040904214BF87
:1030A000002001207047C04600E100E0014B186895
:1030B0007047C04600ED00E0014B01439960704746
:1030C00000ED00E0014A024BDA6070470400FA05A7
:1030D00000ED00E0014A024BDA6070470100FA059A
:1030E00000ED00E021B1054A136940EA030303E063
:1030F000024A136923EA00031361704700ED00E000
:1031000000F01F00012313FA00F021B1054A536AB1
:1031100040EA030303E0034A536A23EA00035362CD
:103120007047C04600ED00E010B5144CE3686FEA4C
:10313000030303F4E0631B0AC3F1040C01FA0CF16E
:103140004FF0FF0C2CFA03F31A400A4300F0C001C1
:10315000400900F018000CFA00FC120182408909B5
:10316000063154F8213023EA0C0344F8213054F896
:1031700021301A4344F8212010BDC04600ED00E084
:10318000800A00F00F0001238340044A506A03EADA
:103190000000984214BF00200120704700ED00E0BD
:1031A00000F01F0001238340024A51680B43536023
:1031B0007047C04600ED00E000F01F000138012319
:1031C0008340024A51680B435360704700ED00E0B2
:1031D000800B00F00F0001238340044A506A03EA89
:1031E0000000984214BF00200120704700ED00E06D
:1031F000830C13F0030302D10D4BD86A17E0012BA7
:1032000013D103F1604303F56C43FE33020D013328
:1032100002F00302996AD30031FA03F0022A14BFC4
:1032200000F00F0000F0FF0001E0014B186B704749
:1032300000ED00E010F4800F0BBF024B014B586B08
:10324000986B704700ED00E000B581B001F014FD0F
:1032500001B000BD00B5000181B001F00AFD01B070
:1032600000BDC04600B581B001F001FD01B000BD58
:1032700000B581B001F0F9FC01B000BD00B581B02E
:1032800001F0F1FC01B000BD00B581B001F0E9FC36
:1032900001B000BD014B18607047C04620000E42CF
:1032A000014B18607047C04610000E42034A136875
:1032B00023F0E003184310607047C04600700040E0
:1032C000014B18607047C046A0000E42034B5B687C
:1032D00018420CBF002001207047C046007000401B
:1032E000024A136843EA800313607047007000408D
:1032F0000B4A00B5136881B043F0040313601368F0
:1033000043F00203136002F1204202F5FA42103248
:10331000136843F00403136001F07EFC01B000BDAC
:10332000007000400C4A00B5136881B023F003031D
:103330001843106002F1204202F5FA42103213687D
:10334000012943F00403136002D101F065FC01E0A0
:1033500001F064FC01B000BD0070004010B54FF0FA
:1033600080542046012100F07DF92046002100F024
:1033700079F910BD0D4A136843F0010313605168D9
:103380000B4B01EA03035360136823F0847323F4A7
:1033900080331360136823F480231360536823F48D
:1033A000FE035360002393607047C0460010024044
:1033B0000000FFF80B4AB0F5803F136823F4803318
:1033C0001360136823F48023136003D0B0F5802FBB
:1033D00007D102E01368034302E0136843F4A0231B
:1033E000136070470010024082B000230949019326
:1033F0000A68019B013312F4003F019303D1019B42
:10340000B3F5A06FF4D1034B1868400C00F0010035
:1034100002B0704700100240034A136823F0F8031B
:1034200043EAC0031360704700100240014B18606C
:103430007047C04600004242034A536823F47C139D
:10344000184308435060704700100240014B186059
:103450007047C04660004242034A536823F00303AA
:10346000184350607047C04600100240024B586835
:1034700000F00C007047C04600100240034A536839
:1034800023F0F003184350607047C046001002401C
:10349000034A536823F4E063184350607047C04602
:1034A00000100240034A536823F4605343EAC00308
:1034B000536070470010024021B1054A137840EA7A
:1034C000030303E0024A137823EA000313707047F2
:1034D00009100240014B18607047C046D8004242B4
:1034E000034A536823F44043184350607047C04672
:1034F00000100240064A002301281370137008BF11
:10350000107003D0042801D1052313707047C04602
:1035100020100240014B18607047C04680044242B0
:10352000024A136A184310627047C04600100240F6
:10353000014B18607047C0463C044242294984460A
:103540004B6803F00C03042B21D0082B1FD14B68D0
:1035500003F470139B0C9A1C4B6813F4803F08BF54
:10356000C2EB421306D04B6813F4003F4FEA4213FC
:1035700006D09B1AC3EB831302EBC3031B0207E0C5
:103580009B1AC3EB831302EBC3035B0200E0164BF1
:103590001448CCF800304368144A03F0F0031B09C8
:1035A000D35CDCF80010D940CCF80410436803F475
:1035B000E0631B0AD35C31FA03F3CCF808304368AC
:1035C00003F46053DB0AD35C094AD940CCF80C10F1
:1035D000436803F440439B0BD35CB1FBF3F1CCF89D
:1035E000101070470010024000127A00DC7C0208C4
:1035F000EC7C020821B1054A536940EA030303E069
:10360000024A536923EA00035361704700100240E5
:1036100021B1054A936940EA030303E0024A936932
:1036200023EA0003936170470010024021B1054A6C
:10363000D36940EA030303E0024AD36923EA0003A3
:10364000D36170470010024021B1054AD36840EAB7
:10365000030303E0024AD36823EA0003D360704700
:103660000010024021B1054A136940EA030303E058
:10367000024A136923EA00031361704700100240F5
:10368000014B18607047C04640044242014B18602D
:103690007047C0464C004242014B18707047C0460C
:1036A000071002404309012B08D103F1804303F5C1
:1036B000023303F5FF6307331B680CE0022B08D1CC
:1036C00003F1804303F5023303F5FF6306331B6AFE
:1036D00001E0044B5B6A00F01F0033FA00F000F0D9
:1036E0000100704700100240024A536A43F08073A1
:1036F0005362704700100240034B9B6818420CBF96
:10370000002001207047C04600100240014B187095
:103710007047C0460A1002400A884B88B0F800C0C3
:1037200013438A880CF4415C1343CA8813430A8903
:1037300013434A8913438A891343CA8913434CEAC2
:10374000030C1FFA8CFCA0F800C0838B23F40063E9
:103750001B041B0C83830B8A038270474FF000030A
:10376000038043808380C380038143818381C3813D
:103770004FF00703038270474FF00003038043803C
:103780008380C3804FF0020303814FF00003438125
:103790007047C04621B103889BB243F0400304E068
:1037A000038823F040031B041B0C03807047C046B2
:1037B00021B1838B9BB243F4806304E0838B23F4B9
:1037C00080631B041B0C83837047C04609090123D7
:1037D0008B4099B222B183889BB241EA030303E094
:1037E00083889BB223EA01038380704722B18388D8
:1037F0009BB241EA030303E083889BB223EA0103FF
:103800008380704781817047808980B27047C0464D
:103810004FF6FF63994217BF038803889BB243F4B6
:10382000807308BF0B4003807047C04621B1838876
:103830009BB243F0040304E0838823F004031B04D9
:103840001B0C83807047C046038823F400631B046D
:103850001B0C038003889BB2194301807047C0464C
:1038600003889BB243F480530380704721B10388DF
:103870009BB243F4005304E0038823F400531B0479
:103880001B0C03807047C046012914BF038B838A39
:1038900098B27047008A80B27047C046B1F5804F39
:1038A00004D103889BB243F4804304E0038823F4EB
:1038B00080431B041B0C03807047C04603891942D8
:1038C0000CBF0020012070476FEA010189B201811D
:1038D0007047C046838802891FFA83FC012001F0EB
:1038E0000F0310FA03F392B21A4201D1002007E04D
:1038F0000B0910FA03F31CEA030F0CBF0020012090
:103900007047C04601F00F0101238B406FEA0303AB
:103910009BB203817047C046838BF0B523F47A6372
:1039200023F01F031B041B0C83834FF0020303844B
:10393000838B87B09FB20B890546022B0C4602D1C0
:103940000221002226E08B8801A8002B0CBF012653
:103950000226FFF7F3FDE3882289B3F5007F019B80
:1039600004D103EB83035B00120205E0520106FB66
:1039700002F203EB83035B00B3FBF2F30533134A5C
:103980009BB2A3FB0223DB0803F0010212025B08D7
:1039900099B292B28B1E9BB2FE2B28BF002228BF89
:1039A000022141EA0203E28813439BB22B8423885D
:1039B000628847EA030343F400631343A288134376
:1039C000628913439BB2AB8307B0F0BDCDCCCCCCA6
:1039D00000B5164B83B0984201901BD003F5744399
:1039E000984204D0A3F5784398421DD10AE0012102
:1039F0004FF48050FFF728FE4FF480500021FFF76E
:103A000023FE11E04FF480400121FFF72BFE4FF41D
:103A1000804006E04FF400400121FFF723FE4FF401
:103A200000400021FFF71EFE03B000BD003C004037
:103A3000042803D1044A1368034303E0024A1368CD
:103A400023F004031360704710E000E0014B58605E
:103A50007047C04610E000E0012803D1084A13680F
:103A6000034306E010F1020F05D1054A136823F065
:103A70000103136002E0024B00229A607047C046C7
:103A800010E000E020B1054A136843F0020303E0B0
:103A9000024A136823F002031360704710E000E04D
:103AA000014B98687047C04610E000E0C308022B45
:103AB000024606D103F1604303F560430E331868F4
:103AC00001E0034BD868D04000F001007047C046C9
:103AD00010E000E0038882B003F08F0303800388C6
:103AE000CA889BB213434A88019013439BB2038058
:103AF0008B880B4A83850B888C4603854FF0010326
:103B00008382084B984214BF00230123904208BFD0
:103B100043F0010313B19CF80830038602B07047EC
:103B2000002C014000340140038C8C4623F001033B
:103B30001B041B0C0384018C8388F0B59DB2038B9E
:103B4000BCF808209EB2BCF8023021F002011343F9
:103B500009049BB2090C43EA0104BCF80630BCF826
:103B6000007083861A4B1B4A984214BF002301231E
:103B700083B0904208BF43F001030190EBB102F122
:103B80004042A2F53052BCF80A30093A04EA020277
:103B90001A434FF6FB7302EA0303BCF8042047F60E
:103BA000FF4143EA0204BCF80E30BCF80C2005EAE1
:103BB000010113439BB243EA01054FF68F7306EAF6
:103BC00003033B4385800383048403B0F0BDC046F8
:103BD00000340140002C0140038CF0B523F01003A9
:103BE0001B041B0C0384038C828823F0200395B2F2
:103BF000028B1B0496B20A891B0C43EA02134A8803
:103C00009BB243EA02139CB2CB880F8803871E4BFA
:103C10001E4A984214BF0023012383B0904208BF7C
:103C200043F0010301908C460BB302F14042A2F530
:103C30003252BCF80A30013A04EA020242EA0312A4
:103C40004FF6BF7302EA0303BCF8042043EA0213F1
:103C50009CB2BCF80C2047F2FF3305EA030343EAA9
:103C60008203BCF80E209BB243EA82039DB248F661
:103C7000FF7306EA030343EA07239BB285800383AD
:103C8000048403B0F0BDC04600340140002C014064
:103C9000038CF0B523F480731B041B0C0384038C8A
:103CA000828823F4007395B2828B1B0496B20A8932
:103CB0001B0C43EA02234A889BB243EA02239CB2CC
:103CC000CB880F8883871D4B1D4A984214BF002361
:103CD000012383B0904208BF43F0010301908C465A
:103CE0000BB302F14042A2F55052BCF80A30013A3F
:103CF00004EA020242EA03224FF6FF3302EA030318
:103D0000BCF8042043EA02239CB2BCF80C2044F621
:103D1000FF7305EA030343EA0213BCF80E209BB2CB
:103D200043EA02139DB24FF68F7306EA03033B4347
:103D300085808383048403B0F0BDC0460034014015
:103D4000002C0140038CF0B523F480531B041B0CA2
:103D50000384038C85B09BB2029383884A881FFA40
:103D600083FC838B0E889DB2CB880F89A0F84030EE
:103D7000174B0192174A984214BF00230123904227
:103D800008BF43F0010303900C463BB14FEA8C435C
:103D9000A2899B0C43EA82131FFA83FC48F6FF7347
:103DA00005EA030343EA06239BB2029AA0F804C083
:103DB00083834DF6FF7302EA030343EA0733019A54
:103DC0009BB243EA02339BB2038405B0F0BDC04608
:103DD00000340140002C01400B8830B504460D46EC
:103DE00043BB238C498823F001031B041B0CB5F84B
:103DF00004C028892384238B228C23F0F3031B0423
:103E00001B0C22F0020243EA001312049BB2120CB4
:103E100041F0010143EA0C030A4323832284238BEC
:103E2000EA8823F00C031B041B0C2383238B9BB217
:103E300013432EE0042B2ED1238CB1F802C023F0C3
:103E400010031B041B0C888809892384238B228C74
:103E500023F440731B0522F020021B0D120443EAD9
:103E60000133120C9BB242EA0C1243EA002392B2D5
:103E70009BB242F0100223832284238BEA8823F42E
:103E800040631B041B0C2383238B9BB243EA022356
:103E90009BB2238355E0082BB1F802C088880989BA
:103EA00025D1238C23F480731B041B0C2384A38B48
:103EB000228C23F0F30322F400721B0412041B0C67
:103EC000120C43EA011342EA0C229BB292B2034362
:103ED00042F48072A3832284A38BEA8823F00C032C
:103EE0001B041B0CA383A38B9BB2134328E0238CDE
:103EF00023F480531B041B0C2384A38B228C23F4F8
:103F000040731B0522F400521B0D120443EA0023E8
:103F1000120C9BB242EA0C3243EA013392B29BB2DA
:103F200042F48052A3832284A38BEA8823F4406363
:103F30001B041B0CA383A38B9BB243EA02239BB2FB
:103F4000A38330BD8C46F0B5BCF800304C8889881E
:103F5000002C0CBF0227002701290CBF02260126D6
:103F6000BCF80850002B4BD1038C23F001031B0439
:103F70001B0C0384038B028C23F0F3031B041B0C28
:103F800043EA051322F002029BB212040B43120C07
:103F900044F001010A4303830284038BBCF806103A
:103FA00023F00C031B041B0C0383038B9BB20B43FA
:103FB0000383038C23F010031B041B0C0384038B6B
:103FC000028C23F440731B0522F030021B0D1204F7
:103FD00043EA0533120C9BB242F0100243EA062377
:103FE00042EA071203830284038B23F440631B0419
:103FF0001B0C0383038B9BB243EA01239BB24CE06F
:10400000038C23F010031B041B0C0384038B028C12
:1040100023F440731B0522F020021B0D120443EA17
:104020000533120C9BB242EA041243EA012392B216
:104030009BB242F0100203830284038BBCF806108B
:1040400023F440631B041B0C0383038B9BB243EAE2
:1040500001239BB20383038C23F001031B041B0C7D
:104060000384038B028C23F0F3031B0422F003026E
:104070001B0C120443EA0513120C9BB242F001021E
:1040800033433A4303830284038B23F00C031B0462
:104090001B0C0383038B9BB20B430383F0BDC04611
:1040A0000A884B8813438A881343CA8813430A89B2
:1040B00013434A8913438A8913439BB2A0F84430BF
:1040C0007047C0464FF0FF3383804FF000030380FA
:1040D000C3804380002303727047C0464FF0000343
:1040E000038043808380C380038143818381C381B4
:1040F0007047C0464FF00003038043804FF0010338
:1041000083804FF00003C380038170474FF00003AA
:10411000038043808380C380038143818381704710
:1041200021B103889BB243F0010304E0038823F02C
:1041300001039B059B0D03807047C04629B1B0F871
:1041400044309BB243F4004303E0B0F844305B04D6
:104150005B0CA0F84430704722B183899BB241EADE
:10416000030303E083899BB223EA01038381704741
:10417000818270470A43A0F84820704722B18389A2
:104180009BB241EA030303E083899BB223EA010364
:1041900083817047038923F007031B041B0C0381F1
:1041A0007047C046038923F070031B041B0C19439E
:1041B000018103899BB243F0070303817047C04626
:1041C00010B50C46602C11469C461AD1038C23F086
:1041D00010031B041B0C0384038B028C23F4407319
:1041E00022F030021B0512041B0D120C43F48073E5
:1041F00042F0100243EA0C3342EA01129BB292B23F
:1042000017E0038C23F001031B041B0C0384038BB6
:10421000028C23F0F3031B0422F003021B0C120494
:1042200043F00103120C43EA0C1342F001029BB26B
:104230000A4303830284038923F070031B041B0CCD
:1042400044EA0303038103899BB243F0070303811C
:1042500010BDC046B0F808C05FFA8CFC41EA0C0102
:104260000A4342EA032292B20281038923F07703D0
:104270001B041B0C43F0770303817047B0F808C0A0
:104280005FFA8CFC41EA0C010A4342EA032292B233
:10429000028103899BB243F4804303817047C04687
:1042A000B0F808C05FFA8CFC41EA0C010A4342EA0C
:1042B000032292B202817047018582827047C04614
:1042C000038823F070039B059B0D19430180704701
:1042D000038923F070031B041B0C194301817047F1
:1042E000B0F808C030B5048B058C24F4407425F078
:1042F000220524F003042D042CF0070C24042D0CBB
:104300004FEA0C4C240C2A434FEA1C4C44F48074B2
:1043100042EA031241EA0C0144F0010492B2018125
:104320000483028430BDC046038B23F070031B045A
:104330001B0C194301837047038B23F4E0431B04D8
:104340001B0C43EA01239BB203837047838B23F04A
:1043500070031B041B0C194381837047838B23F468
:10436000E0431B041B0C43EA01239BB28383704789
:1043700021B103889BB243F0800304E0038823F05B
:1043800080039B059B0D03807047C04621B1838845
:104390009BB243F0040304E0838823F004031B046E
:1043A0001B0C83807047C04621B183889BB243F0C9
:1043B000080304E0838823F008031B041B0C83809C
:1043C0007047C04621B183889BB243F0010304E0EB
:1043D000838823F001031B041B0C83807047C046B5
:1043E000038B23F008031B041B0C19430183704744
:1043F000038B23F400631B041B0C43EA01239BB2D1
:1044000003837047838B23F008031B041B0C1943A1
:1044100081837047838B23F400631B041B0C43EAE6
:1044200001239BB283837047038B23F004031B0497
:104430001B0C194301837047038B23F480631B0417
:104440001B0C43EA01239BB203837047838B23F049
:1044500004031B041B0C194381837047838B23F4D3
:1044600080631B041B0C43EA01239BB283837047C8
:10447000038B23F080031B041B0C1943018370473B
:10448000038B5B045B0C43EA01239BB203837047FD
:10449000838B23F080031B041B0C1943818370471B
:1044A000838B5B045B0C43EA01239BB283837047DD
:1044B000038C23F002031B041B0C19430184704777
:1044C000038C23F008031B041B0C19430184704761
:1044D000038C23F020031B041B0C43EA01139BB243
:1044E00003847047038C23F080031B041B0C43EAF6
:1044F00001139BB203847047038C23F400731B04E5
:104500001B0C43EA01239BB203847047038C23F402
:1045100000631B041B0C43EA01239BB20384704716
:10452000038C23F400531B041B0C43EA01339BB29E
:104530000384704701238B408A40B0F820C01FFAE3
:104540008CFC2CEA030CA0F820C0038C1A4392B216
:104550000284704704238B408A40B0F820C01FFAC1
:104560008CFC2CEA030CA0F820C0038C1A4392B2F6
:104570000284704701238B409446028C82B092B231
:1045800022EA0302082914BF00230123002908BFDF
:1045900043F00103019002846BB110F11802490845
:1045A00050584FF68F7300EA03035350535843EAB1
:1045B0000C03535010E001980A1F92B218305208B1
:1045C000815848F6FF7301EA0303835081584FEA8C
:1045D0000C239BB21943815002B0704721B103886C
:1045E0009BB243F0020304E0038823F002039B051F
:1045F0009B0D03807047C04621B103889BB243F0F6
:10460000040304E0038823F004039B059B0D03804F
:104610007047C04621B183889BB243F0800304E019
:10462000838823F080031B041B0C83807047C046E3
:10463000038823F008039B059B0D038003889BB22E
:10464000194301807047C046838823F070031B0420
:104650001B0C838083889BB2194381807047C046BE
:10466000038923F007031B041B0C038103899BB2FE
:10467000194301817047C046038923F080031B045E
:104680001B0C038103899BB2194301817047C0460B
:1046900081847047818570478186704701877047A4
:1046A00081877047A0F840107047C046038B23F005
:1046B0000C031B041B0C0383038B9BB21943018364
:1046C0007047C046038B23F440631B041B0C038319
:1046D000038B9BB243EA01239BB203837047C0461E
:1046E000838B23F00C031B041B0C8383838B9BB2F3
:1046F000194381837047C046838B23F440631B04B6
:104700001B0C8383838B9BB243EA01239BB283837D
:104710007047C0460388DBB2038003889BB219430D
:1047200001807047808E80B27047C046008F80B293
:104730007047C046808F80B27047C046B0F84000D6
:1047400080B27047808C80B27047C046008D80B2C6
:104750007047C046038A19420CBF002001207047F1
:104760006FEA010189B201827047C046038A8289DB
:1047700019420CBF0020012011420CBF002000F0A4
:10478000010070476FEA010189B201827047C0469B
:1047900000B52F4B83B09842019037D00BD8A3F5CA
:1047A0000063984226D003F58063984228D0B0F188
:1047B000804F4AD118E0274B984233D004D8A3F554
:1047C0008063984241D127E0234B984204D003F5FF
:1047D0000063984239D12EE04FF400600121FEF7CA
:1047E00033FF4FF400602DE001200121FEF73AFF76
:1047F00001201CE002200121FEF734FF022016E018
:1048000004200121FEF72EFF042010E008200121E2
:10481000FEF728FF08200AE010200121FEF722FF02
:10482000102004E020200121FEF71CFF20200021A1
:10483000FEF718FF09E04FF400500121FEF704FFD6
:104840004FF400500021FEF7FFFE03B000BDC0464C
:10485000000C004000140040002C01404FF416539F
:1048600003604FF000038380C38003814FF00C038B
:1048700043814FF0000383817047C046B1F800C008
:104880004B88028A43EA0C03B1F804C0C98822F4B9
:10489000706243EA0C0312040B43120C9BB21343E5
:1048A000038270474FF00003038043808380C380FE
:1048B0007047C04621B183899BB243F4005304E0A2
:1048C000838923F400531B041B0C83817047C0466B
:1048D000CBB24FEA531C01F01F01012382B013FA3F
:1048E00001F1BCF1010F019001D10C3005E0BCF1E8
:1048F000020F01D1103000E0143012B103680B43F5
:1049000002E0036823EA0103036002B07047C04677
:1049100022B1838A9BB241EA030303E0838A9BB2FC
:1049200023EA010383827047038A23F00F031B04E9
:104930001B0C0382038A9BB20B4303827047C04661
:10494000838923F400631B041B0C838183899BB23E
:10495000194381817047C04621B183899BB243F0DE
:10496000020304E0838923F002031B041B0C8381F0
:104970007047C046038A23F020031B041B0C0382EC
:10498000038A9BB2194301827047C04621B1038A52
:104990009BB243F4804304E0038A23F480431B0466
:1049A0001B0C03827047C046C905C90D8180704742
:1049B0008088C005C00D704783899BB243F0010316
:1049C00083817047038BDBB20383038B9BB243EA83
:1049D000012303837047C046038B03F47F430383A3
:1049E000038B9BB20B4303837047C04621B1838A7C
:1049F0009BB243F0200304E0838A23F020031B04CE
:104A00001B0C83827047C04621B1838A9BB243F05E
:104A1000100304E0838A23F010031B041B0C838221
:104A20007047C04621B1838A9BB243F0080304E07B
:104A3000838A23F008031B041B0C83827047C04643
:104A4000838A23F004031B041B0C8382838A9BB29A
:104A5000194381827047C04621B1838A9BB243F0DB
:104A6000020304E0838A23F002031B041B0C8382ED
:104A70007047C046038819420CBF002001207047D0
:104A80006FEA010189B201807047C046CBB24FEA9C
:104A9000531C01F01F02012313FA02F2BCF1010FB3
:104AA00008BF838904D0BCF1020F0CBF038A838A3C
:104AB0009BB202EA030C0B0A01229A4003889BB2C4
:104AC0001A420CBF00200120BCF1000F0CBF0020D7
:104AD00000F001007047C046090A01238B406FEACD
:104AE00003039BB203807047038ACA8823F44053B0
:104AF0001B041B0C13430382828970B50B890E467D
:104B0000898822F4B0520B43718922F00C020B43C6
:104B10001204120C9BB213438381838AB28923F45B
:104B200040731B041B0C88B013430546838201901D
:104B3000044603A8FEF702FD104B11489D420CBF2E
:104B4000069B059B03EB8301336801EB81019B000E
:104B5000B1FBF3F1A1FB002364224FEA531C0CFBD1
:104B6000121212013232A2FB00235B0903F00F0381
:104B700043EA0C139BB22B8108B070BD0038014092
:104B80001F85EB5100B5224B83B0984201902BD08A
:104B900008D8A3F50063984216D003F580639842C5
:104BA00034D119E01B4B984226D003F56843984254
:104BB0002CD101214FF48040FEF746FD4FF4804098
:104BC0000021FEF741FD21E04FF400300121FEF706
:104BD00049FD4FF4003016E04FF480200121FEF72C
:104BE00041FD4FF480200EE04FF400200121FEF73C
:104BF00039FD4FF4002006E04FF480100121FEF74C
:104C000031FD4FF480100021FEF72CFD03B000BDF4
:104C1000004C00400050004030BF704720BF70473C
:104C200040BF7047BFF36F8F7047BFF34F8F704720
:104C3000BFF35F8F704701DF7047EFF31480704759
:104C400080F31488BFF36F8F7047EFF309807047CC
:104C500080F309887047EFF30880704780F3088875
:104C6000704772B6704762B6704771B6704761B6EA
:104C7000704780F311887047EFF31280704740BA95
:104C8000704700BA704700002DF0070168468D4656
:104C900001B500220C49DFF834C00D4802E083580A
:104CA0008B50043201EB02036345F8D3094B0A49E8
:104CB000002201E043F8042B8B42FBD3FBF74CFBB3
:104CC000BDE80140854670470000002064010020D7
:104CD000747F020864010020BC090020000000006D
:104CE000010203040102030406070809020406087E
:104CF0000D0A0D0A2D2D2D2D2D2D2D2D2D2D2D2D6A
:104D0000202044415257494E20462F572055706469
:104D1000617465722076312E33202D2D2D2D2D2D91
:104D20002D2D2D2D2D2D2D0D0A000D0A0D0A20449F
:104D3000584C20436F6D6D756E69636174696F6E59
:104D4000204572726F722120636F6465203A2030B3
:104D5000303030203A20003A005D000D0A0D0A2064
:104D600044584C20436F6D6D756E69636174696F53
:104D70006E204572726F722120636F6465203A2045
:104D800030303031203A20000D0A204E6F20416330
:104D9000747561746F722121000D0A5B005D2053F0
:104DA00074616E6462792E2E2E000D0A0D0A204465
:104DB000584C20436F6D6D756E69636174696F6ED9
:104DC000204572726F722120636F6465203A203033
:104DD0003030392000204472657365742E2E2E0009
:104DE0000D0A0D0A2044584C20436F6D6D756E6995
:104DF000636174696F6E204572726F722120636FF8
:104E00006465203A2030303032203A20000D0A0DFF
:104E10000A2044584C20436F6D6D756E6963617450
:104E2000696F6E204572726F722120636F64652016
:104E30003A2030303033203A200020456E746572BD
:104E400020626F6F746C6F616465722E2E2E004C41
:104E50000052656164792E2E000D0A0D0A20445817
:104E60004C20436F6D6D756E69636174696F6E2060
:104E70004572726F722120636F6465203A20303072
:104E80003034203A200020446F776E6C6F61642EBE
:104E90002E2E00537563636573730020537563632F
:104EA000657373212121000D0A44584C20506F77FF
:104EB0006572204F46462E2E2E00204F4E2E2E2E4F
:104EC000004572726F7200204572726F722121214B
:104ED000000D0A0D0A2044584C20436F6D6D756E0D
:104EE00069636174696F6E204572726F722120630D
:104EF0006F6465203A2030303035203A20000D0AAA
:104F00000D0A2044584C20436F6D6D756E696361C6
:104F100074696F6E204572726F722120636F6465D1
:104F2000203A2030303036203A20000D0A0D0A2079
:104F300044584C20436F6D6D756E69636174696F81
:104F40006E204572726F722120636F6465203A2073
:104F500030303037203A20000D0A0D0A446F776E4A
:104F60006C6F616420436F6D706C657465212121E5
:104F7000000000000100000064000A0370300C0013
:104F800040420F0000E1000000E1000000010203C8
:104F90000405060708090A0B0C0D0E0F1011121359
:104FA0001415161718191A1B1C1D1E1F2021222349
:104FB0002425262728292A2A2B2C2D2E2F30313242
:104FC000333435363738393A3B3C3D3E3F40414239
:104FD000434445464748494A4B4C4D4E4F50515229
:104FE000535455565758595A5B5C5D5E5F60616219
:104FF000636465666768696A6B6C6D6E6F70717209
:10500000737475767778797A7B7C7D7E7F7F8081FB
:1050100082838485868788898A8B8C8D8E8F9091F8
:1050200092939495969798999A9B9C9D9E9FA0A1E8
:10503000A2A3A4A5A6A7A8A9AAABACADAEAFB0B1D8
:10504000B2B3B4B5B6B7B8B9BABBBCBDBEBFC0C1C8
:10505000C2C3C4C5C6C7C8C9CACBCCCDCECFD0D1B8
:10506000D2D3D3D4D5D6D7D8D9DADBDCDDDEDFE0B6
:10507000E1E2E3E4E5E6E7E8E9EAEBECEDEEEFF0A8
:10508000F1F2F3F4F5F6F7F8F9FAFBFC0A00000088
:105090000B0000000C0000000D00000000000000EC
:1050A00001000000020000000300000004000000F6
:1050B0000500000006000000070000000E000000D0
:1050C0000F0000000800000009000000E8FFFFEAF0
:1050D000FFFFECFFFF000000FFFFFFFFFFFFFFFFF0
:1060000000500020917F00082558000829580008FA
:106010002D580008315800083558000800000000CD
:106020000000000000000000000000003D580008D3
:106030003958000800000000415800084558000881
:10604000595800085D580008615800086558000854
:10605000695800086D580008715800087558000804
:10606000795800087D580008815800080000000099
:106070000000000000000000000000000000000020
:106080000000000000000000E1590008A1580008CD
:10609000A5580008A9580008AD580008B1580008D4
:1060A000B5580008B9580008BD580008C159000883
:1060B00079590008C1580008C5580008C958000897
:1060C000CD580008D1580008D5580008D958000804
:1060D000DD58000839590008E1580008E558000863
:1060E000E9580008ED580008F1580008F558000874
:1060F000F9580008FD580008015900080559000822
:10610000095900080D5900081159000815590008CF
:10611000195900081D59000821590008255900087F
:10612000295900082D59000831590008355900082F
:106130005FF800007047C046F0B55B4B83B01B783A
:106140000546002B00F0AC80584B1A78FF2A3CD152
:10615000DFF85CC1002200213CF801305448B5EB67
:10616000830F05DB931C9AB20231162AF4D10AE0A0
:1061700091B229B903888AB298004FF0000C10E060
:1061800011B2162907D14B4B40F6FF701B8816221F
:106190004FEA830C05E0831E5B5A4FEA830C435A97
:1061A0009800CCEB050112B2C1EB0131C2EB023217
:1061B0004900CCEB0000B1FBF0F10C3252183E4923
:1061C000A2FB01231B0999B26BE0531EDBB2012B2A
:1061D00046D805F57E67002601201F374028B1B25A
:1061E00018BF83B2009108BF002334491BB231F8B5
:1061F000162031F813302C46B3EB020C019006D573
:1062000003F57E630CF57E6C1F330CF11F0CA91A8D
:1062100003D501F57E611F313C469C428CBF0023B3
:106220000123A2428CBF002303F001033BB9431CAE
:1062300098B201364128D1D1019B9BB200930CEB5F
:10624000DC7300985B1003EB814301B209034FEA52
:106250008C1201FB023292FBFCF2121391B220E08D
:10626000032A1DD11648002400F10806B0F800C02A
:10627000AC450ED843889D420BD8CCEB03039BB2B0
:10628000CCEB05015A0802EB812292FBF3F2224487
:1062900091B2023004F58063B0429CB2E6D100E0D6
:1062A0002946084603B0F0BD7C0300200806002004
:1062B000681900207C190020ABAAAAAA1E0600209B
:1062C0009619002070B5524B04461B78002B00F045
:1062D0009C80504B1A78FF2A48D102F1004202F507
:1062E000FE2200EB400102F578628900023281FB58
:1062F0000223C918890A4FF6FE7001EA000030B97E
:10630000454B4FF0000C1B889B009AB218E01628F2
:1063100007D1424B40F6FF721B889B001FFA83FC9B
:106320000EE0182803D140F6FF7C624608E03C4BA3
:106330001A5A02331B5A92009B001FFA82FC9AB22F
:10634000C0EB005100EB013104EB4403CCEB020243
:1063500001EBC30101FB02F1324A81FB02230B4432
:10636000C917C1EB2331614488B24FE0531EDBB241
:10637000012B22D881092C4A4B1C3F2908BF00233E
:1063800032F8110032F81330B3EB000C48BF0CF5B3
:106390007E6CC1EB816348BF0CF11F0C14EB8312C0
:1063A00044BF02F57E621F320CFB02F283032033EE
:1063B00003EB02239B0B98B228E0032A25D1DFF8D8
:1063C0006CC000210CF10806A142BCF800203CF88A
:1063D000025C13DC01F580639C420FDC521BC1EBB5
:1063E000040392B202FB03F202F5BE630F3312F50F
:1063F000007258BF134605EBA32398B20CF1020CB0
:10640000B44501F58061DFD100E0204670BDC04693
:106410007C03002008060020681900207C19002059
:1064200066190020810008801E06002098190020AF
:106430007047C046F0B5224B22491A788B5C002B7E
:106440003BD0214B1D7801EB05039B1813F8023C50
:10645000022B32D01D484FF0010C1D4C1D4E28E080
:1064600094F82F3023B1A2F11803DBB20B2B24D800
:10647000442A22D8417816F812308B421DD806EBF8
:1064800042035B788B4218D31F2A0BD1124F01882D
:106490003B888B4203D3114F3B888B4202D9038048
:1064A00002200BE00CF101035FFA83FC531CDAB20B
:1064B0000130AC45D4D3002000E00820F0BDC04638
:1064C000581100208F000020200D0020D003002054
:1064D000C40C002003000020CC0C0020CA0C0020BB
:1064E0007047C046064A138801339BB21380138855
:1064F000044A9B059B0D32F81300C0B27047C0469A
:106500003C0D00205A1100207047C046054B1A6808
:10651000002301E0D21801338342FBD3014B1A6000
:106520007047C04694030020400000F1006000F571
:106530007C4000887047C046334BF0B51D88A3F5FA
:1065400080631F8803F5806302334FF6FF721C8857
:10655000954214BF00260126A3F58063974214BF1D
:1065600000210121B3F800C002330E4218880BD07D
:10657000944514BF00230123944214BF002303F069
:1065800001030BB190423DD04FF6FF72AD1A18BF18
:1065900001250D420DD0944514BF002301239442E0
:1065A0000CBF002303F001031BB1904201D1012075
:1065B00029E04FF6FF72B91A18BF01210D420ED023
:1065C000BCEB020318BF012394420CBF002303F06D
:1065D000010323B1904214BF0320022013E00E42B6
:1065E0000FD04FF6FF72BCEB020318BF0123944299
:1065F00014BF002303F001031BB1904201D004201B
:1066000001E000E00020F0BDFAFF000870B54FF493
:10661000405182B04FF0006003F05AF801AD4FF4E2
:10662000A06002F0B7FF00242523012628468DF83C
:1066300004308DF805408DF806408DF8076002F0B3
:10664000B3FF1C238DF80430284602238DF8053053
:106650008DF806408DF8076002F0A6FF02B070BD0D
:1066600070B54FF4407182B00446254802F08CFEAC
:1066700024484FF4C04102F087FE01AEFCB14FF454
:10668000C0430125102431461E48ADF804308DF872
:1066900006508DF8074002F007FE4FF44073314674
:1066A0001748ADF804308DF806508DF8074002F019
:1066B000FBFD13484FF4805102F068FE1EE04FF4DA
:1066C000C043012518240F483146ADF804308DF839
:1066D00006508DF8074002F0E7FD4FF4407308487C
:1066E0003146ADF804308DF806508DF8074002F0C1
:1066F000DBFD03484FF4805102F046FE02B070BD4E
:1067000000080140000C0140F0B5042083B00121D5
:1067100002F064FE0121544801AE02F05FFE4FF02A
:106720008003ADF804303146042350488DF807301B
:1067300002F0BAFD4FF04003ADF8043003234C4C97
:106740008DF806303146182348488DF8073002F09E
:10675000ABFD4FF480431027ADF8043020464FF0D6
:10676000010331468DF806308DF8077002F09CFD6C
:1067700048F20003ADF8043020464FF001033146E3
:106780008DF806308DF8077002F08EFD4FF400533F
:10679000ADF8043020464FF0010331468DF8063045
:1067A0004FF480558DF8077002F07EFD4FF0010325
:1067B000204631468DF80630ADF804508DF807704C
:1067C00002F072FD2946204602F0E0FD0120FFF7AD
:1067D00047FF4FF05803ADF8043020464FF0010357
:1067E00031468DF8063048258DF8077002F05CFDC3
:1067F0004FF0A00320463146ADF804308DF8075025
:1068000002F052FD4FF0010331461848ADF8043054
:106810008DF8075002F048FD2046082102F0B4FD33
:106820002046102102F0B0FD2046402102F0AEFDCE
:106830004FF00603ADF804302046002331468DF8B2
:10684000073002F031FD20464FF4804102F09EFDFA
:1068500020464FF4004102F097FD20464FF40051CE
:1068600002F094FD03B0F0BD00043000000C0140C4
:1068700000080140F0B5324C002581B04FF460278C
:10688000012630482146256025716571A760E560C5
:10689000267402F0ABF8012203232A48012102F0FA
:1068A0002DF929482146256025716571A760E560AD
:1068B000267402F09BF8244801210122032302F0F0
:1068C0001DF92048012102F0BFF81E4802F0DCF853
:1068D0001C4802F0DFF80028FAD100F1804000F5F2
:1068E000923002F0DDF8174802F0E0F80028FAD103
:1068F00000F1804000F59430012102F0A5F8124823
:1069000002F0C2F8104802F0C5F80028FAD100F1F0
:10691000804000F5943002F0C3F80B4802F0C6F84E
:106920000028FAD100F18040012100F5923002F0F8
:10693000C3F80548012102F0BFF801B0F0BDC04620
:10694000A0060020002401400028014018494FF013
:10695000FF3310B58B804FF080444FF000030B8065
:10696000CB804B80204603F039FA012220460421D7
:1069700003F026FE0F494FF000030B804FF0010398
:106980004B800D4B20461B88CB804FF000030B81C2
:1069900003F04EFA2046002103F0A6FE2046022115
:1069A000012203F05DFD2046012103F03DFD10BDF5
:1069B000B2030020100D00200000002010B5374B5E
:1069C0001B78012B03D1364B4FF003020AE0022B58
:1069D00003D1334B4FF0020204E0032B03D1304BC1
:1069E0004FF001021A802E494FF000034B8040F215
:1069F000FF32CB8000232B4C8A800B722A4803F095
